{
  "_format": "hh-sol-artifact-1",
  "contractName": "AddressManager",
  "sourceName": "contracts/AddressManager.sol",
  "abi": [
    {
      "anonymous": false,
      "inputs": [
        {
          "indexed": true,
          "internalType": "address",
          "name": "_address",
          "type": "address"
        }
      ],
      "name": "AddressAdded",
      "type": "event"
    },
    {
      "anonymous": false,
      "inputs": [
        {
          "indexed": true,
          "internalType": "address",
          "name": "_address",
          "type": "address"
        },
        {
          "indexed": false,
          "internalType": "enum AddressManager.Status",
          "name": "status",
          "type": "uint8"
        }
      ],
      "name": "AddressMarked",
      "type": "event"
    },
    {
      "inputs": [
        {
          "internalType": "address",
          "name": "_address",
          "type": "address"
        }
      ],
      "name": "getMarkedStatus",
      "outputs": [
        {
          "internalType": "string",
          "name": "",
          "type": "string"
        }
      ],
      "stateMutability": "view",
      "type": "function"
    },
    {
      "inputs": [],
      "name": "getUnmarkedAddresses",
      "outputs": [
        {
          "internalType": "address[]",
          "name": "",
          "type": "address[]"
        }
      ],
      "stateMutability": "view",
      "type": "function"
    },
    {
      "inputs": [
        {
          "internalType": "address",
          "name": "_address",
          "type": "address"
        }
      ],
      "name": "markAsGood",
      "outputs": [],
      "stateMutability": "nonpayable",
      "type": "function"
    },
    {
      "inputs": [
        {
          "internalType": "address",
          "name": "_address",
          "type": "address"
        }
      ],
      "name": "markAsPossibleFraud",
      "outputs": [],
      "stateMutability": "nonpayable",
      "type": "function"
    },
    {
      "inputs": [
        {
          "internalType": "address",
          "name": "_address",
          "type": "address"
        }
      ],
      "name": "storeAddress",
      "outputs": [],
      "stateMutability": "nonpayable",
      "type": "function"
    }
  ],
  "bytecode": "0x608060405234801561001057600080fd5b50610b9e806100206000396000f3fe608060405234801561001057600080fd5b50600436106100575760003560e01c806319134eb51461005c578063390b6c2c146100785780637128666b1461009457806388f904e4146100b0578063aa8912d4146100e0575b600080fd5b61007660048036038101906100719190610838565b6100fe565b005b610092600480360381019061008d9190610838565b6101b8565b005b6100ae60048036038101906100a99190610838565b610271565b005b6100ca60048036038101906100c59190610838565b610382565b6040516100d791906108f5565b60405180910390f35b6100e861052b565b6040516100f591906109d5565b60405180910390f35b6002600160008373ffffffffffffffffffffffffffffffffffffffff1673ffffffffffffffffffffffffffffffffffffffff16815260200190815260200160002060006101000a81548160ff02191690836002811115610161576101606109f7565b5b02179055508073ffffffffffffffffffffffffffffffffffffffff167f1f7eb988854038180e2829e4a080ad5aa7e9de03286a0131cdf289a185b911d160026040516101ad9190610a6e565b60405180910390a250565b60018060008373ffffffffffffffffffffffffffffffffffffffff1673ffffffffffffffffffffffffffffffffffffffff16815260200190815260200160002060006101000a81548160ff0219169083600281111561021a576102196109f7565b5b02179055508073ffffffffffffffffffffffffffffffffffffffff167f1f7eb988854038180e2829e4a080ad5aa7e9de03286a0131cdf289a185b911d160016040516102669190610a6e565b60405180910390a250565b6000819080600181540180825580915050600190039060005260206000200160009091909190916101000a81548173ffffffffffffffffffffffffffffffffffffffff021916908373ffffffffffffffffffffffffffffffffffffffff1602179055506000600160008373ffffffffffffffffffffffffffffffffffffffff1673ffffffffffffffffffffffffffffffffffffffff16815260200190815260200160002060006101000a81548160ff02191690836002811115610337576103366109f7565b5b02179055508073ffffffffffffffffffffffffffffffffffffffff167fa226db3f664042183ee0281230bba26cbf7b5057e50aee7f25a175ff45ce4d7f60405160405180910390a250565b606060006002811115610398576103976109f7565b5b600160008473ffffffffffffffffffffffffffffffffffffffff1673ffffffffffffffffffffffffffffffffffffffff16815260200190815260200160002060009054906101000a900460ff1660028111156103f7576103f66109f7565b5b03610439576040518060400160405280600881526020017f556e6d61726b65640000000000000000000000000000000000000000000000008152509050610526565b60028081111561044c5761044b6109f7565b5b600160008473ffffffffffffffffffffffffffffffffffffffff1673ffffffffffffffffffffffffffffffffffffffff16815260200190815260200160002060009054906101000a900460ff1660028111156104ab576104aa6109f7565b5b036104ed576040518060400160405280600e81526020017f506f737369626c652046726175640000000000000000000000000000000000008152509050610526565b6040518060400160405280600481526020017f476f6f640000000000000000000000000000000000000000000000000000000081525090505b919050565b60606000805b60008054905081101561060f5760006002811115610552576105516109f7565b5b6001600080848154811061056957610568610a89565b5b9060005260206000200160009054906101000a900473ffffffffffffffffffffffffffffffffffffffff1673ffffffffffffffffffffffffffffffffffffffff1673ffffffffffffffffffffffffffffffffffffffff16815260200190815260200160002060009054906101000a900460ff1660028111156105ee576105ed6109f7565b5b036106025781806105fe90610af1565b9250505b8080600101915050610531565b5060008167ffffffffffffffff81111561062c5761062b610b39565b5b60405190808252806020026020018201604052801561065a5781602001602082028036833780820191505090505b5090506000805b6000805490508110156107cb5760006002811115610682576106816109f7565b5b6001600080848154811061069957610698610a89565b5b9060005260206000200160009054906101000a900473ffffffffffffffffffffffffffffffffffffffff1673ffffffffffffffffffffffffffffffffffffffff1673ffffffffffffffffffffffffffffffffffffffff16815260200190815260200160002060009054906101000a900460ff16600281111561071e5761071d6109f7565b5b036107be576000818154811061073757610736610a89565b5b9060005260206000200160009054906101000a900473ffffffffffffffffffffffffffffffffffffffff1683838151811061077557610774610a89565b5b602002602001019073ffffffffffffffffffffffffffffffffffffffff16908173ffffffffffffffffffffffffffffffffffffffff168152505081806107ba90610af1565b9250505b8080600101915050610661565b5081935050505090565b600080fd5b600073ffffffffffffffffffffffffffffffffffffffff82169050919050565b6000610805826107da565b9050919050565b610815816107fa565b811461082057600080fd5b50565b6000813590506108328161080c565b92915050565b60006020828403121561084e5761084d6107d5565b5b600061085c84828501610823565b91505092915050565b600081519050919050565b600082825260208201905092915050565b60005b8381101561089f578082015181840152602081019050610884565b60008484015250505050565b6000601f19601f8301169050919050565b60006108c782610865565b6108d18185610870565b93506108e1818560208601610881565b6108ea816108ab565b840191505092915050565b6000602082019050818103600083015261090f81846108bc565b905092915050565b600081519050919050565b600082825260208201905092915050565b6000819050602082019050919050565b61094c816107fa565b82525050565b600061095e8383610943565b60208301905092915050565b6000602082019050919050565b600061098282610917565b61098c8185610922565b935061099783610933565b8060005b838110156109c85781516109af8882610952565b97506109ba8361096a565b92505060018101905061099b565b5085935050505092915050565b600060208201905081810360008301526109ef8184610977565b905092915050565b7f4e487b7100000000000000000000000000000000000000000000000000000000600052602160045260246000fd5b60038110610a3757610a366109f7565b5b50565b6000819050610a4882610a26565b919050565b6000610a5882610a3a565b9050919050565b610a6881610a4d565b82525050565b6000602082019050610a836000830184610a5f565b92915050565b7f4e487b7100000000000000000000000000000000000000000000000000000000600052603260045260246000fd5b7f4e487b7100000000000000000000000000000000000000000000000000000000600052601160045260246000fd5b6000819050919050565b6000610afc82610ae7565b91507fffffffffffffffffffffffffffffffffffffffffffffffffffffffffffffffff8203610b2e57610b2d610ab8565b5b600182019050919050565b7f4e487b7100000000000000000000000000000000000000000000000000000000600052604160045260246000fdfea2646970667358221220f6b37abfe18dd916a0d56ea9b6d4e01c36436cb8f27c9a8978aa3087051d1a3064736f6c63430008180033",
  "linkReferences": {},
  "deployedLinkReferences": {}
}